:020000040800F2
:100000000080002029180008610500086305000829
:100010006505000867050008690500080000000084
:100020000000000000000000000000006B05000858
:100030006D050008000000006F050008710500084C
:10004000791800087918000879180008791800084C
:10005000791800087918000879180008791800083C
:10006000791800087918000879180008791800082C
:10007000791800087918000879180008791800081C
:1000800079180008000000007918000879180008A5
:1000900079180008791800087918000879180008FC
:1000A00079180008791800087918000879180008EC
:1000B00079180008791800087918000879180008DC
:1000C00079180008791800087918000879180008CC
:1000D00079180008791800087918000879180008BC
:1000E00079180008791800087918000879180008AC
:1000F0007918000879180008791800080000000035
:1001000000000000791800080000000079180008BD
:100110007918000800000000791800087918000814
:10012000791800087918000879180008791800086B
:10013000791800080000000000000000791800088D
:10014000791800087918000800000000000000007D
:10015000000000000000000000000000000000009F
:1001600000000000000000000000000079180008F6
:1001700079180008000000000000000000000000E6
:1001800000000000791800080000000000000000D6
:10019000000000000000000000000000000000005F
:1001A000000000000000000079180008791800081D
:1001B0007918000879180008791800080000000074
:1001C0000000000079180008000000000000000096
:0801D0007918000879180008F5
:1001D80070B50D4E0D4D761BB61006D000240134B7
:1001E80055F8043B9847A642F9D1094E094D761BAC
:1001F80001F040FBB61006D00024013455F8043B4A
:100208009847A642F9D170BDA4180008A4180008A0
:10021800A8180008A4180008F0B4860746D0541E91
:10022800002A3CD0CAB2034602E014F1FF3436D3A8
:1002380003F8012B9D07F8D1032C29D9CDB245EA43
:1002480005250F2C45EA054533D9A4F110063609D2
:1002580003F1200707EB061703F1100242E90455E2
:1002680042E902551032BA42F8D1721C14F00C0F50
:1002780003EB021204F00F0613D0331F23F003031D
:100288000433134442F8045B9342FBD106F00304A1
:100298002CB1C9B21C4403F8011B9C42FBD1F0BC31
:1002A800704734461346002CF3D1F8E7144603464A
:1002B800C2E71A462646E0E710B5054C237833B95D
:1002C800044B13B10448AFF300800123237010BD21
:1002D8000C000020000000007C18000808B5034B43
:1002E8001BB103490348AFF3008008BD00000000BC
:1002F800100000207C18000830B58BB0002405944D
:1003080006940794089409941C4BDA6C42F0040292
:10031800DA64DA6C02F004020192019ADA6C42F0B3
:100328002002DA64DA6C02F020020292029ADA6C95
:1003380042F00202DA64DA6C02F002020392039AD3
:10034800DA6C42F00102DA64DB6C03F00103049317
:10035800049B0B4D22464FF48051284601F064F966
:100368004FF480530593012306930794089405A935
:10037800284601F06FF80BB030BD00BF00100240F6
:100388000004004872B6FEE708B51048104B036039
:100398004FF482734360002383604FF4E062C260CD
:1003A80002220261012242614FF400728261282216
:1003B800C2610362436283620722C26203634363CA
:1003C80000F03BFA00B908BDFFF7DCFF2800002069
:1003D8000038004010B594B03822002106A8FFF775
:1003E8001BFF0024019402940394049405944FF491
:1003F800007001F01FF9022306934FF480730993EC
:1004080040230A930D9406A800F070FC68B90F23E6
:10041800019301230293002103910491059101A8FE
:1004280000F01CFF18B914B010BDFFF7ABFFFFF7C1
:10043800A9FF000008B500F00BFCFFF7CBFFFFF7A2
:100448005BFFFFF7A1FF00F069F8014B1870FEE7AA
:100458008C00002000B587B08DF80F003223009380
:1004680001230DF117020DF10F01044800F059FAAC
:100478008DF8170007B05DF804FB00BF28000020C6
:1004880038B504460D4610F0800F23D144F04000E3
:10049800FFF7E0FF280EFFF7DDFFC5F30740FFF782
:1004A800D9FFC5F30720FFF7D5FFE8B2FFF7D2FF62
:1004B800CCB1082C19D18720FFF7CCFF0A24FF20E4
:1004C800FFF7C8FF10F0800F03D0631E13F0FF047E
:1004D800F5D138BD00F07F0400213720FFF7D0FFA9
:1004E8000128D3D9F5E79520E6E70120E4E70000E5
:1004F80010B500210846FFF7C3FF0446012801D0C4
:10050800204610BD01224FF48051034801F08CF8B9
:10051800FF20FFF79FFFF3E70004004810B50C4BDE
:100528001A68136823F0380343F03003136001227C
:100538004FF48051074801F077F8002403E0FF20CA
:10054800FFF788FF0134092CF9DDFFF7D1FF10BD53
:100558002800002000040048FEE7FEE7FEE7FEE76B
:10056800FEE770477047704708B500F081FB08BD8B
:1005780000B583B00B4B1A6E42F001021A661A6E70
:1005880002F001020092009A9A6D42F080529A6538
:100598009B6D03F080530193019B01F0D1F803B0E8
:1005A8005DF804FB0010024000B589B000230393F6
:1005B80004930593069307930268134B9A4202D05B
:1005C80009B05DF804FB03F5EC339A6D42F4804200
:1005D8009A659A6D02F480420192019ADA6C42F0AF
:1005E8000202DA64DB6C03F002030293029B4FF40D
:1005F80060430393022304930523079303A9034845
:1006080000F028FFDCE700BF003800400004004885
:100618002DE9F04782B00546884617461E4600F089
:1006280033FB0A9B1B1A03EB060900F02DFB8246DD
:100638002B4B1B68C3F3CB3309FB03F301932B68E4
:100648009C6838EA04030CBF4FF0010C4FF0000C13
:10065800BC4540D0B6F1FF3FF1D000F015FBA0EB50
:100668000A0048450AD2B9F1000F07D0019A02B131
:100678004A46019B013B01939146E0E72A6853688B
:1006880023F0E00353606B68B3F5827F0BD0AB6A4D
:10069800B3F5005F14D0012385F85D30002385F899
:1006A8005C30032018E0AB68B3F5004F02D0B3F517
:1006B800806FECD12A68136823F040031360E6E7E3
:1006C8002A68136823F4005313602A68136843F4F4
:1006D80000531360DFE7002002B0BDE8F08700BFD9
:1006E800080000202DE9F04782B006460C46154662
:1006F8001F4600238DF8033000F0C6FA0A9B1B1A28
:1007080003EB070800F0C0FA8146D6F800A0314B89
:100718001B6803EB8303C3EBC3031B0D08FB03F345
:10072800019302E0B7F1FF3F12D133689B6803EAF7
:10073800040CAC454AD0B4F5C06FF3D1002DF1D10B
:100748009AF80C30DBB28DF803309DF80330E9E7F6
:1007580000F09AFAA0EB090040450AD2B8F1000F60
:1007680007D0019A02B14246019B013B0193904692
:10077800DBE73268536823F0E00353607368B3F52E
:10078800827F0BD0B36AB3F5005F14D0012386F8DB
:100798005D30002386F85C30032018E0B368B3F5B9
:1007A800004F02D0B3F5806FECD13268136823F0A4
:1007B80040031360E6E73268136823F400531360BC
:1007C8003268136843F400531360DFE7002002B077
:1007D800BDE8F0870800002070B582B004460D46D9
:1007E800164600920B4600224FF4C051FFF77AFFDD
:1007F800B0B900962B46002280212046FFF708FF5B
:10080800A8B900962B4600224FF4C0612046FFF796
:1008180069FF50B1236E43F020032366032004E0F0
:10082800236E43F020032366032002B070BD236EBD
:1008380043F0200323660320F7E700286FD010B5A4
:100848000446436A33B94368B3F5827F05D0002371
:10085800C36102E00023036143610023A36294F8AB
:100868005D30002B52D0022384F85D302268136873
:1008780023F040031360E368B3F5E06F4CD900221E
:10088800B3F5706F04D0B3F5E06F01D00023A36215
:10089800636803F48273A16801F404410B4321697E
:1008A80001F002010B43616901F001010B43A169E9
:1008B80001F400710B43E16901F038010B43216A2F
:1008C80001F080010B43A16A01F4005120680B4339
:1008D8000360638B03F00403616A01F010010B43AA
:1008E800616B01F008010B43E16801F470610B438F
:1008F800216813434B602268D36923F40063D361F2
:1009080000202066012384F85D3010BD84F85C3037
:100918002046FFF749FEA6E74FF48052B0E70120D2
:1009280070472DE9F8431F46089D90F85C30012B6D
:1009380000F06481044688469146012380F85C30C3
:1009480000F0A2F9064694F85D30DBB26268012B2C
:100958000AD0B2F5827F40F03881A268002A40F0C0
:100968003D81042B40F03C81B8F1000F00F03A8142
:10097800B9F1000F00F03881002F00F0378194F8AA
:100988005D30DBB2042B02D0052384F85D300023F0
:100998002366C4F84090A4F84670A4F84470C4F8DC
:1009A8003880E787A787E3642365E368B3F5E06FDA
:1009B80001D8012F23D92268536823F48053536048
:1009C80023681A6812F0400F03D11A6842F04002F7
:1009D8001A60E368B3F5E06F58D963680BB1012F6B
:1009E8000BD1A26B23681288DA60A36B0233A3636E
:1009F800E38F9BB2013B9BB2E387012731E022687A
:100A0800536843F480535360DAE7A26B1288DA60C4
:100A1800A36B0233A363E38F9BB2013B9BB2E387D3
:100A2800002723689A6812F0010F11D0B4F8462005
:100A380092B26AB1DA68236C1A80236C0233236499
:100A4800B4F846309BB2013B9BB2A4F8463001276C
:100A580000F01AF9831BAB4203D3B5F1FF3F40F016
:100A6800C780E38F9BB22BB9B4F846309BB2002BFA
:100A780000F0A18023689A6812F0020FD1D0E28FAB
:100A880092B2002ACDD0002FCBD0BEE763680BB15D
:100A9800012F0FD1E38F9BB2012B0DD9A26B2368D5
:100AA8001288DA60A36B0233A363E38F9BB2023B25
:100AB8009BB2E387012749E0A26B236812781A7377
:100AC800A36B0133A363E38F9BB2013B9BB2E38724
:100AD800F0E7E28F92B2012A0CD9A26B1288DA6091
:100AE800A36B0233A363E38F9BB2023B9BB2E38702
:100AF80000273DE0A26B12781A73A36B0133A3633E
:100B0800E38F9BB2013B9BB2E387002730E022686A
:100B1800536843F48053536001270DE0226C1B7B1C
:100B28001370236C01332364B4F846309BB2013B45
:100B38009BB2A4F84630012700F0A6F8801BA84213
:100B480002D3B5F1FF3F55D1002D55D0E38F9BB2AD
:100B580023B9B4F846309BB2002B2CD023689A688E
:100B680012F0020F04D0E28F92B20AB1002FB0D176
:100B780023689A6812F0010FDED0B4F8462092B2CA
:100B8800002AD9D0B4F8462092B2012AC6D9DA6828
:100B9800236C1A80236C02332364B4F846309BB26A
:100BA800023B9BB2A4F84630B4F846309BB2012B06
:100BB800ADD90127C0E7324629462046FFF70CFE8B
:100BC80020B120232366012000E00220012384F8BD
:100BD8005D30002384F85C30BDE8F8830220F5E737
:100BE8000220F3E70120F1E70120EFE70120EDE71C
:100BF8000320EBE70320E9E70320E7E70220EBE720
:100C0800104B1B680BB90120704710B504464FF410
:100C18007A70B0FBF3F30C4A1068B0FBF3F000F005
:100C2800E1FD68B90F2C01D901200AE00022214614
:100C38004FF0FF3000F09EFD044B1C60002000E0E8
:100C4800012010BD00000020080000200400002042
:100C580010B5032000F07CFD0F20FFF7D1FF10B185
:100C68000124204610BD0446FFF782FCF9E7000086
:100C7800034A1368034909680B441360704700BFAF
:100C88009000002000000020014B1868704700BF4A
:100C980090000020124BDA6802F00302D868C0F313
:100CA8000310431C032A11D00E48B0FBF3F00C4B81
:100CB800DB68C3F3062303FB00F0094BDB68C3F3CF
:100CC800416301335B00B0FBF3F070470648B0FBAB
:100CD800F3F0034BDB68C3F3062303FB00F0ECE7F8
:100CE800001002400024F40000127A00002800F0EE
:100CF800548270B582B00446036813F0010F37D0F0
:100D0800A44A936803F00C03D26802F003020C2B88
:100D180023D0082B23D06368B3F5803F4ED0B3F5BA
:100D2800A02F51D09B4B1A6822F480321A601A689F
:100D380022F480221A606368002B52D0FFF7A4FFC8
:100D48000546944B1B6813F4003F11D1FFF79CFF35
:100D5800401B6428F5D9032028E2032AD9D18D4BFA
:100D68001B6813F4003F03D06368002B00F0178260
:100D7800236813F0020F5DD0864A936803F00C03D2
:100D8800D26802F003020C2B3AD0042B3AD0E36865
:100D9800002B75D07F4A136843F480731360FFF704
:100DA80073FF05467B4B1B6813F4806F5FD1FFF719
:100DB8006BFF401B0228F5D90320F7E1754A136839
:100DC80043F480331360B6E703F18043A3F53C3363
:100DD8001A6842F480221A601A6842F480321A6053
:100DE800A9E7FFF751FF05466A4B1B6813F4003F5C
:100DF800BED0FFF749FF401B6428F5D90320D5E191
:100E0800022AC2D1634B1B6813F4806F03D0E368D6
:100E1800002B00F0C6815F4A536823F0FE43216926
:100E280043EA016353605C4B1868FFF7E9FE00284A
:100E380040F0B981236813F0080F4CD063699BB365
:100E4800544AD2F8943043F00103C2F89430FFF7C3
:100E58001BFF05464F4BD3F8943013F0020F3AD1DD
:100E6800FFF712FF401B0228F4D903209EE1494AEC
:100E7800536823F0FE43216943EA01635360D9E7CD
:100E8800444A136823F480731360FFF7FDFE054698
:100E9800404B1B6813F4806FCCD0FFF7F5FE401B66
:100EA8000228F5D9032081E13A4AD2F8943023F098
:100EB8000103C2F89430FFF7E7FE0546354BD3F837
:100EC800943013F0020F06D0FFF7DEFE401B022815
:100ED800F4D903206AE1236813F0040F00F081803D
:100EE8002C4B9B6D13F0805F36D12A4B9A6D42F0E4
:100EF80080529A659B6D03F080530193019B0125F5
:100F0800264B1B6813F4807F28D0A368012B39D0A7
:100F1800052B45D01F4BD3F8902022F00102C3F8CF
:100F28009020D3F8902022F00402C3F89020A36800
:100F3800002B43D0FFF7A8FE0646164BD3F8903097
:100F480013F0020F4CD1FFF79FFE801B41F288334C
:100F58009842F2D9032029E10025D1E70F4A136806
:100F680043F480731360FFF78FFE06460B4B1B6834
:100F780013F4807FC9D1FFF787FE801B0228F5D9BB
:100F8800032013E1034AD2F8903043F00103C2F87A
:100F98009030CCE7001002400400002000700040B0
:100FA8008A4BD3F8902042F00402C3F89020D3F87B
:100FB800902042F00102C3F89020B8E7FFF764FEE2
:100FC8000646824BD3F8903013F0020F08D0FFF793
:100FD8005BFE801B41F288339842F2D90320E5E09A
:100FE800E5B9236813F0200F35D0A369E3B1774A38
:100FF800D2F8983043F00103C2F89830FFF744FE66
:101008000546724BD3F8983013F0020F23D1FFF73F
:101018003BFE401B0228F4D90320C7E06B4A936DBE
:1010280023F080539365DCE7684AD2F8983023F0C0
:101038000103C2F89830FFF727FE0546634BD3F843
:10104800983013F0020F06D0FFF71EFE401B02284F
:10105800F4D90320AAE0E369002B00F0A6805B4ADC
:10106800926802F00C020C2A69D0022B1DD0574B53
:101078001A6822F080721A60DA6822F00302DA60D5
:10108800DA6822F0887222F48032DA60FFF7FCFD19
:1010980004464E4B1B6813F0007F4ED0FFF7F4FD5B
:1010A800001B0228F5D9032080E0484A136823F082
:1010B80080731360FFF7E8FD0546444B1B6813F087
:1010C800007F06D0FFF7E0FD401B0228F5D903207A
:1010D8006CE03E4AD3683E491940236A606A013889
:1010E80043EA0013A06A43EA0023206B4008013852
:1010F80043EA4053606B4008013843EA4063E06AC2
:1011080043EAC0630B43D360136843F080731360F2
:10111800D36843F08073D360FFF7B6FD04462B4BCA
:101128001B6813F0007F06D1FFF7AEFD001B0228F5
:10113800F5D903203AE0002038E0002036E0012B02
:1011480036D0224BDB6803F00301226A914231D189
:1011580003F0F002616A0139B2EB011F2CD103F4EC
:10116800FE42A16AB2EB012F28D103F07842E16A6E
:10117800B2EBC16F24D103F4C001226B5208013ACB
:10118800B1EB425F1ED103F0C063626B5208013AB3
:10119800B3EB426F18D1002008E00120704701200E
:1011A80004E0012002E0012000E0002002B070BD50
:1011B8000120FBE70120F9E70120F7E70120F5E727
:1011C8000120F3E70120F1E70120EFE700100240DA
:1011D8000C809F011E4B9B6803F00C03042B33D03B
:1011E8001B4B9B6803F00C03082B2FD0184B9B68F4
:1011F80003F00C030C2B01D000207047144BDA6865
:1012080002F00302D868C0F30310431C032A11D06C
:101218001048B0FBF3F00E4BDB68C3F3062303FB67
:1012280000F00B4BDB68C3F3416301335B00B0FB99
:10123800F3F070470848B0FBF3F0054BDB68C3F3E5
:10124800062303FB00F0ECE70248704702487047AA
:10125800001002400024F40000127A00002800F078
:10126800E680F8B50C460546744B1B6803F00F037F
:101278008B420BD2714A136823F00F030B431360A0
:10128800136803F00F038B4240F0D3802E6816F0EA
:1012980001065FD06B68032B2FD0022B4DD0684B13
:1012A8001B6813F4806F00F0C680FFF793FF654B4F
:1012B80098424DD9624A936823F0F00343F08003C3
:1012C800936080265E4A936823F0030369680B43A2
:1012D8009360FFF7D9FC0746594B9B6803F00C0352
:1012E8006A68B3EB820F35D0FFF7CEFCC01B41F222
:1012F80088339842F0D9032078E0514B1B6813F0EB
:10130800007F01D1012071E0FFF7C4FC4D4B9842EA
:101318001AD94B4B9B6813F0F00F05D02E6816F0C6
:101328000206CFD0AB688BB9454A936823F0F00327
:1013380043F0800393608026C4E7414B1B6813F495
:10134800003FB2D1012051E00026BBE70026B9E7F3
:101358000026B7E72B6813F0020F48D013F0040FEC
:1013680004D0374A936843F4E06393602B6813F022
:10137800080F06D0324A936823F47C5343F4E063A1
:1013880093602F4A936823F0F003A9680B43936096
:101398002A4B1B6803F00F03A34230D82B6813F0C5
:1013A800040F06D0264A936823F4E063E9680B43E8
:1013B80093602B6813F0080F07D0214A936823F431
:1013C8006053296943EAC1039360FFF703FF1C4B8D
:1013D8009B68C3F303131C4AD35C03F01F03D84074
:1013E8001A4B18601A4B1868FFF70AFCF8BD802ED4
:1013F800CED1134A936823F0F0039360C8E70F4AED
:10140800136823F00F0323431360FFF73DFC0646E0
:101418000A4B1B6803F00F03A342BFD0FFF734FC4D
:10142800801B41F288339842F2D90320DEE701207D
:1014380070470120DAE70120D8E700BF002002400A
:101448000010024000B4C4049418000808000020EA
:1014580004000020F0B583B0002362E085685E00D8
:101468000324B44025EA0405CC68B4402C438460C6
:10147800446824EA0C0C4C68C4F300149C4044EA09
:101488000C0444605EE0DD08083550F8256003F080
:1014980007044FEA840C0F2404FA0CF426EA040E1D
:1014A8000C6904FA0CF444EA0E0440F8254060E0A4
:1014B800052400E0002404FA0EF42C430CF1020C7D
:1014C800554D45F82C40554CA568D44325EA0206ED
:1014D8004F6817F4801F01D042EA05064F4DAE60F1
:1014E800ED6804EA05064F6817F4001F01D042EAC8
:1014F80005064A4DEE606D6804EA05064F6817F464
:10150800003F01D042EA0506444D6E602D682C402C
:101518004E6816F4803F01D042EA05043F4A146041
:1015280001330A6832FA03F474D04FF0010C0CFA54
:1015380003FC1CEA0202F3D04C6804F00304013CEB
:10154800012C8BD94C6804F00304032C0CD0C4681C
:101558005D004FF0030C0CFA05FC24EA0C0C8C68B7
:10156800AC4044EA0C04C4604C6804F00304022C48
:1015780089D004684FEA430E4FF0030C0CFA0EFCB6
:1015880024EA0C0C4C6804F0030404FA0EF444EA50
:101598000C0404604C6814F4403FC1D0204C256E04
:1015A80045F001052566246E04F001040194019CB0
:1015B8004FEA930C0CF10205174C54F8255003F030
:1015C80003044FEA840E0F2404FA0EF425EA0405F6
:1015D800B0F1904F3FF46EAF124CA04212D004F518
:1015E8008064A04210D004F58064A0420ED004F5B7
:1015F8008064A0420CD004F58064A0423FF458AF48
:10160800062458E7012456E7022454E7032452E746
:10161800042450E703B0F0BD00000140000401407D
:1016280000100240000400480AB1816170478162DD
:1016380070470000002836D13E4B1B6803F4C06396
:10164800B3F5806F08D03B4AD2F8803023F480731A
:10165800C2F8803000207047364AD2F8803023F430
:101668008073C2F88030136823F4C06343F40073B6
:101678001360314B1B68322202FB03F32F4AA2FB93
:1016880003239B0C013300E0013B2A4A526912F400
:10169800806F01D0002BF7D1264B5B6913F4806F64
:1016A80044D100207047B0F5007F08D0214A136864
:1016B80023F4C06343F480631360002070471D4B1C
:1016C8001B6803F4C063B3F5806F08D0194AD2F8D9
:1016D800803043F48073C2F8803000207047154A88
:1016E800D2F8803043F48073C2F88030136823F452
:1016F800C06343F4007313600F4B1B68322202FB74
:1017080003F30E4AA2FB03239B0C013300E0013BC9
:10171800084A526912F4806F01D0002BF7D1054BAB
:101728005B6913F4806F03D1002070470320704772
:1017380003207047007000400800002083DE1B4330
:10174800024A936843F480439360704700700040F6
:10175800074AD36823F4E0631B041B0C000200F45F
:10176800E060034343F0BF6343F40033D360704742
:1017780000ED00E000B5194BDB68C3F30223C3F1A9
:10178800070CBCF1040F28BF4FF0040C03F1040E42
:10179800BEF1060F18D9033B4FF0FF3E0EFA0CFCC2
:1017A80021EA0C0199400EFA03F322EA03031943D4
:1017B80000280BDB0901C9B200F1604000F5614067
:1017C80080F800135DF804FB0023E5E700F00F0044
:1017D8000901C9B2024B1954F4E700BF00ED00E05B
:1017E80014ED00E00138B0F1807F0BD24FF0E02318
:1017F8005861054AF02182F82310002098610722D9
:101808001A6170470120704700ED00E0034AD2F8E2
:10181800883043F47003C2F88830704700ED00E068
:101828000D4885460D480E490E4A002302E0D4585B
:10183800C4500433C4188C42F9D30B4A0B4C002310
:1018480001E013600432A242FBD3FFF7DFFFFEF78B
:10185800BFFCFEF7EFFDFEE700800020000000203F
:101868000C000020AC1800080C0000209400002098
:10187800FEE70000F8B500BFF8BC08BC9E467047FC
:0C188800F8B500BFF8BC08BC9E467047D5
:10189400000000000000000001020304060708091C
:0418A400E502000851
:0418A800C102000871
:0C18AC0001000000100000000024F40007
:0400000508001829AE
:00000001FF
